:100000000C9436000C9400000C9400000C9400003A
:100010000C9400000C9400000C9400000C94000060
:100020000C9400000C9400000C9400000C94000050
:100030000C9400000C9400000C9400000C94000040
:100040000C9400000C9400000C9400000C94000030
:100050000C940000EFEFABC7EFFFFFFFFFFFFFFFC8
:10006000FFFFFFFF1000600254000000F894EE272D
:10007000ECBBF1E0FBBFEBBFE5BFF8E1F1BDE1BDDB
:100080008DE0A2E0BB27ED938A95E9F780E098E048
:10009000A0E6ED930197E9F7E4E6F0E0859195910C
:1000A000009761F0A591B59105901590BF01F00101
:1000B00005900D920197E1F7FB01F0CFEFE5EDBF61
:1000C000E8E0EEBFC0E6D2E00C946600E0E0EBBBF7
:1000D000EABBE8BBEFEFE7BBE0E0E5BBEFEFE4BB7B
:1000E000E0E0E2BBEFEFE1BBE0E0E3BFE2BFECBF8B
:1000F000EFBDEEBDEDBDECBDE7BDE6BDEBBDEABDC0
:10010000E9BDE8BDE2BDE5BDE4BDE3BDE5BFE4BFDB
:10011000E9BFE0E8E8B9E0E0E0BF00E810E018304F
:10012000B8F408BBE0E0E2BBE12FF0E0E05AFD4F9D
:100130002BD0E0E0E8BB02BBE12FF0E0E859FD4F37
:1001400023D0E02FF0E0F595E7950E2F1F5FE7CF66
:10015000EFE0F0E0FA93EA930E94CC0030916F0256
:100160002FE0213068F0A22FB0E0A05ABD4FE22F5F
:10017000F0E03197E05AFD4FE081EC932150F1CF50
:1001800030936002CACFFFCFE081E5BBE1E0F0E051
:10019000FA93EA930C94CC00E991F991309639F0F6
:1001A00080ED97E00197F1F7A8953197C9F7089589
:00000001FF
