:020000020000FC
:1000000008E00EBF0FE50DBF0FEF04BB01BB0BBB3C
:1000100000E00ABB07BB09B3003029F010E020E084
:1000200030E040E008C019E029E039E049E017C0BD
:1000300009B30030A1F0193011F013954CC010E055
:10004000293011F0239547C020E0393011F0339565
:1000500042C030E0493009F0439540E0E1F1103012
:1000600011F01A9538C019E0203011F02A9533C0EC
:1000700029E0303011F03A952EC039E0403009F0D7
:100080003A9549E028C0003011F40FE3089501309B
:1000900011F406E00895023011F40BE508950330E1
:1000A00011F40FE40895043011F406E608950530C4
:1000B00011F40DE60895063011F40DE708950730A8
:1000C00011F407E00895083011F40FE7089509309E
:1000D00009F40FE608950EEF02BB042F0E944300BF
:1000E00005BB0E948C000DEF02BB032F0E94430052
:1000F00005BB0E948C000BEF02BB022F0E94430045
:1001000005BB0E948C0007EF02BB012F0E94430039
:1001100005BB0E948C008CCF51E06FEF7FEF7A958A
:0C012000F1F76A95D9F75A95C1F70895D8
:00000001FF
