:0E0000000C943A000C9400000C9400000C9438
:10000E0000000C9400000C9400000C9400000C9462
:10001E0000000C9400000C9400000C9467000C94EB
:10002E0000000C9400000C9400000C9400000C9442
:10003E0000000C9400000C9400000C9400000C9432
:10004E0000000C9400003F065B4F666D7D077F6FCE
:10005E00777C395E79710000000000000000070017
:10006E00050064000000F894EE27ECBBF1E0FBBF46
:10007E00EBBFE5BF8DE0A2E0BB27ED938A95E9F7D4
:10008E0080E098E0A0E6ED930197E9F7ECE6F0E06A
:10009E0085919591009761F0A591B5910590159078
:1000AE00BF01F00105900D920197E1F7FB01F0CF32
:1000BE00EFE5EDBFE8E0EEBFC0E6D2E00C94D9006C
:1000CE000A921A926A939A93AA93BA93EA93FA931C
:1000DE00EFB7EA93E52DF0E03196DF01E3E0F0E0D3
:1000EE000E9411015E2EA0E08099A1E0E1E0EA9F5E
:1000FE00602DA0E08199A1E0E2E0EA9FF0016E0F91
:10010E00A0E08299A1E0E4E0EA9FF0016E0FA0E08A
:10011E008399A1E0E8E0EA9FF0016E0FA0E08499D8
:10012E00A1E0E0E1EA9FF0016E0FA0E08599A1E069
:10013E00E0E2EA9FF0016E0FA0E08699A1E0E0E414
:10014E00EA9FF0016E0FA0E08799A1E0E0E8EA9F38
:10015E00F001E60F6E2E7724F301EF70F0704F0171
:10016E00F3010E94F5005F01552039F4E7E0E8BB8A
:10017E00F401EC5AFF4F049005BAE1E0E51539F4AD
:10018E00EBE0E8BBF501EC5AFF4F049005BAE9919C
:10019E00EFBFF991E991B991A9919991699119904E
:1001AE0009901895E0E0EABBEBBBEFEFE7BBE0E0B0
:1001BE00E8BBEFEFE4BBE0E0E5BBE1BBEFEFE2BB9A
:1001CE00EDE0E3BFE0E0E2BFECBFE2E0E9BF789430
:1001DE00FFCFFFCFF195E195F0400895F695E795A5
:1001EE00F695E795F695E795F695E795089500242B
:1001FE00112490E1AA0FBB1F001C111C0E1A1F0A1E
:10020E0018F40E0E1F1E01C0A1609A9599F7FD01FC
:10021E00D0010895E894B7FF04C0A095B09511964B
:10022E006894F7FDD7DFE3DFFD010EF4D3DF089509
:00000001FF
