:020000000C945E
:100002005C000C9400000C9400000C9400000C9412
:1000120000000C9400000C9400000C9489000C94D5
:1000220000000C9400000C9400000C9400000C944E
:1000320000000C9400000C9400000C9400000C943E
:1000420000000C9400000C9400000C9400000C942E
:100052000000000000003A0017002020004C43443A
:1000620020434C4F434B003A000001002D4E414EBD
:1000720000494E46000080C00800040054000300FE
:1000820060025C00030063025C00030066025C0025
:100092000A0069025F000200730269000200750231
:1000A200690002007702690001007D026C00020013
:1000B200810278000000F894EE27ECBBF1E0FBBF70
:1000C200EBBFE5BF8DE0A2E0BB27ED938A95E9F790
:1000D20080E098E0A0E6ED930197E9F7EAE7F0E027
:1000E20085919591009761F0A591B5910590159034
:1000F200BF01F00105900D920197E1F7FB01F0CFEE
:10010200EFE5EDBFE8E0EEBFC0E6D2E00C941501EA
:100112000A921A92FA926A937A938A939A93AA9378
:10012200BA93EA93FA93EFB7EA93F20131962F0169
:10013200EAE0F0E0E415F50529F444245524F3013E
:1001420031963F01ECE3F0E0E615F70561F4662431
:100152007724F40131964F01E9E00E940D02A0E6F6
:10016200B2E00E94CD01ECE3F0E0E815F90561F49C
:1001720088249924F50131965F01E6E00E940D0280
:10018200A3E6B2E00E94CD01E8E1F0E0EA15FB054A
:1001920049F4AA24BB24E3E00E940D02A6E6B2E0E1
:1001A2000E94CD015A924A92A9E7B2E00E944F0101
:1001B200ECE00E940D02A9E7B2E00E94CD017A9222
:1001C2006A92AAE7B2E00E944F01E9E00E940D02A2
:1001D200AAE7B2E00E94CD019A928A92ABE7B2E01E
:1001E2000E944F01E6E00E940D02ABE7B2E00E94DE
:1001F200CD01BA92AA92ACE7B2E00E944F01E3E0CD
:100202000E940D02ACE7B2E00E94CD01E991EFBF7E
:10021200F991E991B991A99199918991799169910C
:10022200F990199009901895EFEFE4BBE0E0E5BB77
:10023200EFBDECE0EEBDE0E0EDBDECBDE7BDE6BD3F
:10024200ECE0EBBDE5E3EABDE0E0E9BDE8BDE0E1FD
:10025200E9BF7894A0E10E94DE010E94AA01E3E0D6
:10026200EA93A0E00E949D01A9E6B2E00E94CD01BE
:10027200E5E00E940D02A3E7B2E00E94CD01E8E0B2
:100282000E940D02A5E7B2E00E94CD01EBE00E94C0
:100292000D02A7E7B2E00E94CD01FFCFBA93AA9365
:1002A200A991B991E991F99130962AF4E095F095E6
:1002B20031966DE26D93E89480E197E20DD088EE7D
:1002C20093E00AD084E6992707D08AE005D06E2F02
:1002D20010D066276C9308956627E817F90720F077
:1002E2006395E81BF90BC9F7662311F416F008951C
:1002F2006894605D6D930895AA93E5B3EF70AE2F95
:10030200E881E07FEA2BE5BB8DE08A95F1F7AA9AB6
:100312008DE08A95F1F7AA988DE08A95F1F77AC077
:10032200AA93A881E9DFE881E295E883A881E4DF66
:1003320085E88A95F1F76EC0AA93E881F0E0EF575D
:10034200FD4FE081A981AE0FEBDFD980C8802296F4
:100352000895A2E00E941102ACE0E2DFA1E00E9457
:100362001102E0E0CE2EDE2E0895AA93A881AA30D3
:1003720021F0E0918502DE1648F0E0E0EA93C394B2
:10038200AC2DDADFA881AA3009F444C0D394A89A2C
:10039200A881C6DFA8983EC0BA93AA931A93A981EE
:1003A200BA81ED91A983BA831E2FE03019F0A12FF3
:1003B200DCDFF5CF188123960895AA93E4B3E06FAA
:1003C200E4BBA29AA09AA19AAA98A898A998E881AF
:1003D200E0938502E058E0938302E881E054E093E1
:1003E2008402A4E1B0E00E941F020E9417020E9450
:1003F20017020E941702A0E27FDF88EC90E00197CB
:10040200F1F7A8E28DDFA4E08BDFA5E889DFA6E0A3
:1004120087DF9FDF21960895EA93A1E00C949D0166
:100422000E949101A3E0B0E00C941F02A0E30E949D
:100432007D0188EC90E00197F1F70895109639F06C
:1004420080ED97E00197F1F7A8951197C9F7089504
:00000001FF
