:020000000C945E
:100002003F000C9400000C9400000C9400000C942F
:1000120000000C9400000C9400000C948B000C94D3
:1000220000000C9400000C946C000C9400000C94E2
:1000320000000C9400000C9400000C9400000C943E
:1000420000000C9400000C9400000C9400000C942E
:100052000000030002000800050000003F065B4F9D
:10006200666D7D077F6F80000A00040054000A005D
:1000720060025E0001006C0268000000F894EE2746
:10008200ECBBF1E0FBBFEBBFE5BF8DE0A2E0BB271D
:10009200ED938A95E9F780E098E0A0E6ED93019769
:1000A200E9F7EAE6F0E085919591009761F0A59174
:1000B200B59105901590BF01F00105900D92019741
:1000C200E1F7FB01F0CFEFE5EDBFE8E0EEBFC0E600
:1000D200D2E00C94F500AA93BA93EA93FA93EFB79D
:1000E200EA93ADE6B2E0ED91FD913196FE93EE9387
:1000F200A0916D02B0916E02169729F4E0E0E093B0
:100102006D02E0936E02E991EFBFF991E991B99125
:10011200A99118950A92AA93BA93EA93FA93EFB720
:10012200EA93F60131966F01E17011F4E0E801C043
:10013200E0E0E0936C02EAE0F0E0EC15FD0509F086
:100142004BC0CC24DD24AAE6B2E0ED91FD913196BC
:10015200FE93EE93A0916A02B0916B021697E1F5BD
:10016200E0E0E0936A02E0936B02F40131964F0102
:10017200EAE0F0E0E815F90579F588249924F5011B
:1001820031965F01E6E0F0E0EA15FB0529F5AA24C5
:10019200BB24F20131962F01E4E0F0E0E415F5050D
:1001A20029F4E2E0F0E0E615F70509F005C0442481
:1001B20055246624772410C0EAE0F0E0E415F50542
:1001C20021F400240614070409F006C0442455242F
:1001D200F30131963F013197E991EFBFF991E9912E
:1001E200B991A99109901895E0E0EBBBEABBE8BB95
:1001F200E7BBE5BBEFEFE4BBE0E0E2BBEFEFE1BB67
:10020200ECE0E3BFE0E0E2BFE3E6ECBFE0E0EFBD3D
:10021200ECE0EEBDE0E0EDBDECBDE7BDE6BDEAE73A
:10022200EBBDE2E1EABDE0E0E9BDE8BDE5BDE4BD6C
:10023200E3BDE5BFE4BFE2E1E9BFE0E8E8B9E0E041
:10024200E0BF7894E0916D02F0916E02309749F42C
:10025200EEEFE2BBA0E6B2E0A60DB71DEC91E5BB66
:100262003FC0E130A0E0FA0741F4EDEFE2BBA0E6C7
:10027200B2E0A40DB51D36D033C0E230A0E0FA07DB
:1002820049F4EBEFE2BBA0E6B2E0AA0DBB1DEC9194
:10029200E5BB26C0E330A0E0FA0741F4E7EFE2BB9A
:1002A200A0E6B2E0A80DB91D1DD01AC0E430A0E04E
:1002B200FA0759F4EFEEE2BBE0916A02F0916B02A9
:1002C200E05AFD4FE081E5BB0BC0E530A0E0FA0744
:1002D20039F4EFEDE2BBA0E6B2E0AC0DBD1D02D0F9
:1002E200B1CFFFCFEC91A0916C02EA2BE5BB089550
:00000001FF
