:060000000C9450000C946A
:1000060000000C9400000C9400000C9400000C946A
:1000160000000C9400000C9400000C9400000C945A
:1000260000000C9400000C9400000C9400000C944A
:1000360000000C9400000C9400000C9400000C943A
:1000460000000C9400000C9400000C940000102793
:10005600E80364000A00010000100001100001001E
:1000660000000000010000006572726F72002564D6
:10007600000080C001002D4E414E00494E46000052
:10008600080004006600060060026E000200CE0250
:1000960078000100D5027A000000F894EE27ECBB48
:1000A600F1E0FBBFEBBFE5BF8DE0A2E0BB27ED9320
:1000B6008A95E9F780E098E0A0E6ED930197E9F7E5
:1000C600E6E8F0E085919591009761F0A591B591EC
:1000D60005901590BF01F00105900D920197E1F78B
:1000E600FB01F0CFEFE5EDBFE8E0EEBFC0E6D2E002
:1000F6000C947D00EFEFE4BBEFE0E1BBE0E0E5BB95
:10010600A0E10E94F8020E94B902AAD11E2F1F3F49
:1001160009F4A3C0A5D1EF3FE9F7A4E1B0E00E943E
:10012600BA051A3068F588249924A12FA05D0E948B
:10013600C7020E94F704FF93EF93DF010E94700746
:10014600A0E0B0E080E291E40E94B406AF91BF91D6
:100156000E9476070E94F704FF93EF93DF010E9447
:100166007007DF01CB01E12FF0E00E9467070E94D4
:100176002A060E946406AF91BF910E9476076DC061
:1001860000240814090419F0133609F066C01D335B
:1001960059F50E94FF0463D0A091CC02B091CD0224
:1001A600119741F4E0E0EA93A1E00E94A802A0E6DC
:1001B600B2E017C0E6EBF2E0FA93EA93E4E7F0E088
:1001C600FA93EA93F5010E9467070E947F0784E08D
:1001D6000E949A042896E0E0EA93A1E0B6D1A6EB45
:1001E600B2E00E94E70239C0133611F5BFD1E0E054
:1001F600EA93A0E0AAD1BAD1E6E6F2E0FA93EA934E
:10020600E0E0EA93A4E1B0E00E94CE04EEE8F2E07A
:10021600FA93EA93E0E0EA93AAE0B0E00E94CE0403
:100226006624772444245524E1E0F0E04F0115C00C
:100236000E94FF04F20131962F01F3010E94050589
:10024600AE0FBF1FE12FFF27662777270E942A06DA
:100256000E947607F30131963F0157CFFFCFCC249A
:10026600DD24C614D7040CF086C0F6010E940505ED
:100276000E940A050E940F0519F00E94170509F44D
:1002860076C0F6010E9405050E940A05E030A0E04E
:10029600FA07ACE36A07A2E47A0721F50E941F0574
:1002A6000E94910739F4E1E0F0E0E093CC02F0938C
:1002B600CD0217C00E942705FF93EF93DF010E942E
:1002C60070077F936F93FF93EF930E941F05AF9183
:1002D600BF918F919F910E940207AF91BF910E949B
:1002E600760724C0F6010E9405050E940A05E03043
:1002F600A0E0FA07A8E26A07A2E47A07B9F40E9426
:100306002705FF93EF93DF010E9470077F936F939A
:10031600FF93EF930E941F05AF91BF918F919F911D
:100326000E94B406AF91BF910E9476070E942F05E6
:100336000E943C053CF40E9445050E944A050E9425
:100346005F05F6CFC092CA02D092CB020E94670523
:10035600A615B7054CF40E9445050E9405050E94A6
:100366006C050E945F05F2CFF60131976F01F60129
:1003760031966F0176CFCC24DD24C614D7040CF059
:1003860063C0F6010E9405050E940A050E940F053A
:10039600B1F40E942705FF93EF93DF010E947007D7
:1003A6007F936F93FF93EF930E941F05AF91BF91C9
:1003B6008F919F910E946406AF91BF911FC0F60175
:1003C6000E9405050E940A050E941705C9F40E94AD
:1003D6002705FF93EF93DF010E9470077F936F93CA
:1003E600FF93EF930E941F05AF91BF918F919F914D
:1003F6000E9484070E945D06AF91BF910E94760716
:100406000E942F050E943C053CF40E9445050E946F
:100416004A050E945F05F6CFC092CA02D092CB026F
:100426000E946705A615B7054CF40E9445050E9473
:1004360005050E946C050E945F05F2CFF601319713
:100446006F0131966F0199CFE0916602F0916702D4
:1004560060916802709169020E94F3055F01089538
:100466001A931FEF909A91980E947A05849B02C076
:1004760017E00AC0859B02C018E006C0869B02C032
:1004860019E002C087991FE29098919A0E947A0516
:10049600849B02C014E00AC0859B02C015E006C01A
:1004A600869B02C016E002C087991AE2909891983E
:1004B600929A9398A5E0B0E00E94BA05849B02C088
:1004C60011E00AC0859B02C012E006C0869B02C0EE
:1004D60013E002C087991DE2909891989298939A9A
:1004E600A5E0B0E00E94BA05849B02C013E60AC0EC
:1004F600859B02C010E006C0869B02C01DE302C0B9
:1005060087991BE2E12F19910895AA93E5B3EF703D
:10051600AE2FE881E07FEA2BE5BB8DE08A95F1F707
:10052600AA9A8DE08A95F1F7AA988DE08A95F1F757
:1005360089C0AA93A881E9DFE881E295E883A881CA
:10054600E4DF85E88A95F1F77DC0AA93E881F0E0BB
:10055600E253FD4FE081A981AE0FEBDFE981E09325
:10056600D202E881E093D30222960895A2E00E9487
:100576008005ACE0DEDFA1E00E948005E0E0E093CC
:10058600D302E093D2020895AA93A881AA3031F04B
:10059600E091D402A091D202AE1760F0E0E0EA93B7
:1005A600A091D302AF5FA093D302CFDFA881AA3078
:1005B60009F448C0E091D202EF5FE093D202A89A14
:1005C600A881B7DFA8983EC0BA93AA931A93A981C7
:1005D600BA81ED91A983BA831E2FE03019F0A12FBD
:1005E600D3DFF5CF188123960895AA93E4B3E06F7D
:1005F600E4BBA29AA09AA19AAA98A898A998E88179
:10060600E093D402E058E093D002E881E054E0930E
:10061600D102A4E1B0E00E94BA050E9486050E94BC
:1006260086050E948605A0E270DF88EC90E00197BF
:10063600F1F7A8E27EDFA4E07CDFA5E87ADFA6E09A
:1006460078DF94DF21960895BA93AA931A930A93B2
:10065600AA81BB8112960E946C07309759F1AA8134
:10066600BB8114960E946C078F01309761F00230AF
:10067600E0E01E0798F0F80131978F01AA81BB814F
:100686001496ED93FC93AA81BB811296ED91FD9190
:100696003196FE93EE933197AC81A083AA81BB81FC
:1006A6000E946C07FF232AF0ED91FD913196FE938F
:1006B600EE9306C0AA81BB81EFEFFFEFED93FC93AB
:1006C6001981088176C1BA93AA9326970E94950745
:1006D60010E0AC85BD85E0E0F0E0ED93FC93EA899F
:1006E600FB893196EA8BFB8B3197E4912E2FE03014
:1006F60009F415C1E12FE03039F4253211F411E087
:1007060002C00E948E050AC1E130A9F4253219F40F
:100716000E948E0502C112E040E000E02D3211F485
:1007260001E0FCC02B3211F44BE2F8C0203211F488
:1007360040E2F4C002C0E23039F450E013E0203366
:1007460011F40068EBC003C0E33009F0E7C02033C2
:1007560010F02A3308F007C0AAE05A9F502DE22F66
:10076600E0535E0FDBC0E22FE33649F40E949505A5
:10077600E889F989A481AA930E949B05CEC0E33734
:1007860041F40E9495050E94A1050E94DE041E2FD9
:100796000AC0E03761F40E9495050E94A1050E94F7
:1007A600EA041E2F086002600F7730E034C0E4369A
:1007B60011F0E93611F4046002C0E53731F4E4E5DE
:1007C600F0E0EE83FF8315E00CC0E83511F4086015
:1007D60003C0E83709F0A1C0EEE5F0E0EE83FF8341
:1007E60014E002FF14C00E9495050E94AB05AB857C
:1007F600AA233AF4EA85FB850E944B07EA87FB8722
:100806004DE2403011F01F5F01C00B7F04C00E9413
:1008160095050E94AB0500FD11C0151778F407FF7A
:1008260008C002FF04C00B7F242F115001C020E333
:1008360001C020E20E948E055150EFCF312F01FFFB
:1008460017C03030A1F003FF06C0EE81FF8125916D
:10085600EE83FF8305C0AE81BF812D91AE83BF833A
:100866000E948E05503009F051503150EACF4BC0EE
:1008760020E3EE81FF810E947B07E887F987EE81FE
:10088600FF813296EE83FF83E885F985AA85BB85CD
:10089600AE17BF0750F02F5FA885B985EA85FB859F
:1008A600EA1BFB0BEA87FB87EFCF2A3328F003FF0F
:1008B60002C0295F01C0295D04FD1AC0213320F45E
:1008C600A885B985119709F409C0531710F000FFE0
:1008D60001C013C020E207FF0BC020E3006102FF46
:1008E60007C00B7F4A930E949B05503009F0515078
:1008F6000E948E05503009F051503150A885B985B7
:10090600129708F0B5CF00FF08C0503031F05150B3
:10091600E0E2EA930E949B05F8CF10E0E0CEAC85BA
:10092600BD850E946C070E949C0764960895FF92FD
:10093600F82E26970E9497070E94B305309719F460
:10094600EFEFFFEF23C0DE0116960E9447078D01E9
:100956000E94B305EE83FF83E0E0E887E987DE01C6
:100966001A960E9447070E946C07FA93EA931A9315
:100976000A93E7E2F3E0FA93EA93DE011A96A3DE1E
:100986009F01AE81BF81E0E0EC93F9010E949E07D2
:100996002A96FF900895BA93AA93B981A8811096D2
:1009A60031F0FC81EB816A8161931197E9F7EB8164
:1009B600FC8125960895BA93AA93A991B991EE2739
:1009C600FF276D91662311F03196FBCF0895BA93F8
:1009D600AA93AA27BB27E991F9910590002011F067
:1009E6001196FBCFFD010895F201A6E6B2E00E9442
:1009F6005707EA0FFB1F0895E1E0F0E04F01A12F32
:100A06000C94C702AEE8B2E00E9457070895AE0FF5
:100A1600BF1F0E9470070895E030A0E0FA07ACE21D
:100A26006A07A2E47A070895E030A0E0FA07A4E393
:100A36006A07A2E47A070895D6010E945C07A659C0
:100A4600BD4F0E9470070895F601A6E6B2E00E9427
:100A56005707EA0FFB1F0895F20131972F01F301A3
:100A660031973F01F6013196E093CA02F093CB022B
:100A76000895F2013196A091CA02B091CB02AE1749
:100A8600BF070895E091CA02F091CB020895A6E649
:100A9600B2E00E945707EA0FFB1F0F01A091CA029E
:100AA600B091CB020E945C07A659BD4F0E94700709
:100AB600D0010E9476070895AAECB2E0ED91FD916F
:100AC6003196FE93EE930895A091CA02B091CB029F
:100AD6000895EA0FFB1F0F01F7DF0E945C07AE5671
:100AE600BD4F0E947007D0010E9476070895929824
:100AF6009398A5E0B0E00C94BA050E949C02A3E08E
:100B0600B0E00C94BA05A0E30E94880288EC90E05D
:100B16000197F1F708952A93AD85BE85EF85F8898B
:100B260009950895E889F9893497E88BF98B089532
:100B3600AD85BE85EF85F88909950895A889B98997
:100B460014960E946C07EE83FF83AE81BF810895E1
:100B5600A889B98914960E946C07EA87FB870895CD
:100B6600DE011C960E9447070E946C0708951096A6
:100B760039F080ED97E00197F1F7A8951197C9F73D
:100B86000895552342F4503811F4E0FF04C031961D
:100B9600691F791F6BF050E8572711F45F93CFC098
:100BA6005F3F31F0660F000C57956795752F0895D6
:100BB6005F9300200AF0CFC0C8C050E8192E152256
:100BC600880F991F9527550F879550E8072E052200
:100BD600660F771F7527550F67950895689401C0AE
:100BE600E8945F93F2DF703818F07F3F08F4A7C0EF
:100BF60056E1571BAAF4519558300EF4593030F08F
:100C0600EFEFFFEF6FEF7FE777F91AC077275523EE
:100C1600B9F0EE0FFF1F661F771F5A95D1F710C068
:100C26007727583028F0EF2FF62F672F5850F9CF37
:100C3600552331F076956795F795E7955A95D1F74F
:100C460000200AF429D15F910895689401C0E894C0
:100C5600309760407040B1F0002426F0772312F4FC
:100C660000941AD1172E7EE1112032F07A95EE0FFC
:100C7600FF1F661F111CF9CFEF2FF62F612D5F9313
:100C86008ADF5F9108954F93AF01FD01DA01AB0151
:100C9600BC01CA01402D012C142E4F910895EA0F74
:100CA600FB1F681F0895E095F0956095EF5FFF4F75
:100CB6006F4F08955F9381DF903871F150E81526E4
:100CC60004C05F937ADF903839F1703821F1572FDD
:100CD600591B2BF112F4D7DFFACF583118F0AA2797
:100CE600BB278827583028F0AB2FB82F88275850B5
:100CF600F9CF552329F08695B795A7955A95D9F733
:100D0600502D512572F0CBDF38F46795F795E795AE
:100D1600739513F420C0B7DF3EDF5F910895D8F7CF
:100D2600FBCFEA1BFB0B680B51F010F40094BBDF02
:100D3600662392F3EE0FFF1F661F7A95CBF7EE2719
:100D4600FF27662777275F910895EFEFFFEF6FE79D
:100D56007FEF5F910895EFEFFFEF6FE77FE75F911A
:100D660008955F932ADF703851F3903841F30124D8
:100D76000894791F23F41CF300203AF3ECCF0F926A
:100D86001F932F933F934F93112722279927689FED
:100D9600A0018F9F302D410D591F6B9F300D411DB6
:100DA600591F8E9F27D0BF9F25D06A9F23D0BE9FF5
:100DB6001DD0AF9F1BD0AE9F110D291F391F491F94
:100DC600591FE32FF42F652F522F4F913F912F91EB
:100DD6001F910F9066232AF0550FEE1FFF1F661F07
:100DE60002C073954BF2CDDE5F910895100D211D63
:100DF600391F02C0200D311D491F591F08955F93E9
:100E0600DCDE703821F411200AF49FCFA4CF90388D
:100E160009F495CF01240894970B1BF4D4F3002012
:100E2600F3CF792F1F932F933F934F9311241127BD
:100E3600222733274427552790E2AE17BF07860798
:100E4600410730F0AE1BBF0B860B410B089401C067
:100E56008894551F221F331F111CAA1FBB1F881FF2
:100E6600441F9A9551F7F901612D4F913F912F91AA
:100E76001F91662332F0550FEE1FFF1F661F7A95EE
:100E860043F27FDE5F9108950024AF0DB01D0895F3
:100E9600F195E195F0400895F09560957095E1958E
:100EA600FF4F6F4F7F4F0895EE0FFF1FEE0FFF1F8F
:100EB6000895AA0FBB1FAA0FBB1F0895FE2FFF0F91
:100EC600FF0B6F2F7F2F08956F2F660F660B762F00
:100ED6000895ED91FC9111970895ED91FD916D9115
:100EE6007C9113970895ED93FD936D937C930895EC
:100EF6000590F491E02D08957A936A93FA93EA9314
:100F06000895182E862F612D192E972F712D1B2EC1
:100F1600BF2FF12D1A2EAE2FE12D08953097604088
:100F2600704008955A934A933A932A931A930A93D0
:100F360008955D814C813B812A811981088108953C
:00000001FF
