:020000000C945E
:1000020055000C9400000C9400000C9400000C9419
:1000120000000C9400000C9400000C9400000C945E
:1000220000000C9400000C9400000C9400000C944E
:1000320000000C9400000C9400000C9400000C943E
:1000420000000C9400000C9400000C9400000C942E
:10005200000000000000000000000000000000009E
:100062007C1211127C000000007F494949360000D1
:10007200003E414141220000007F4141413E0000DB
:100082000000007F4949494900000000007F09093A
:10009200090001020408102040803F006002540061
:1000A2000800AD0294000000F894EE27ECBBF1E0EA
:1000B200FBBFEBBFE5BF8DE0A2E0BB27ED938A95C6
:1000C200E9F780E098E0A0E6ED930197E9F7ECE923
:1000D200F0E085919591009761F0A591B591059019
:1000E2001590BF01F00105900D920197E1F7FB0118
:1000F200F0CFEFE5EDBFE8E0EEBFC0E6D2E00C9452
:100102008200E0E0E8BBEFEFE7BBE0E0E5BBEFEF4A
:10011200E4BBE0E0E2BBEFEFE1BBE8E0F0E02F019F
:10012200E8E4F0E04E165F06F0F588249924E4E056
:10013200F0E08E169F0698F566247724E0E1F0E061
:100142006E167F0670F4ADEAB2E0A60DB71DEC9113
:10015200E8BBF301E40DF51D28D0F30131963F0110
:10016200EDCFA2E0B0E00E94DF0066247724E0E158
:10017200F0E06E167F0678F4ADEAB2E0A60DB71D88
:10018200EC91E2BBF301E40DF51D38970ED0F301BB
:1001920031963F01ECCFF40131964F01C8CFF20105
:1001A20031962F01BDCFB9CFFFCFE05AFD4FE0818D
:1001B200E095E5BBA1E0B0E00C94DF00109639F0C9
:1001C20080ED97E00197F1F7A8951197C9F7089587
:00000001FF
